{
  "_format": "hh-sol-artifact-1",
  "contractName": "ERC721",
  "sourceName": "contracts/token/ERC721/ERC721.sol",
  "abi": [
    {
      "inputs": [
        {
          "internalType": "string",
          "name": "name_",
          "type": "string"
        },
        {
          "internalType": "string",
          "name": "symbol_",
          "type": "string"
        }
      ],
      "stateMutability": "nonpayable",
      "type": "constructor"
    },
    {
      "anonymous": false,
      "inputs": [
        {
          "indexed": true,
          "internalType": "address",
          "name": "owner",
          "type": "address"
        },
        {
          "indexed": true,
          "internalType": "address",
          "name": "approved",
          "type": "address"
        },
        {
          "indexed": true,
          "internalType": "uint256",
          "name": "tokenId",
          "type": "uint256"
        }
      ],
      "name": "Approval",
      "type": "event"
    },
    {
      "anonymous": false,
      "inputs": [
        {
          "indexed": true,
          "internalType": "address",
          "name": "owner",
          "type": "address"
        },
        {
          "indexed": true,
          "internalType": "address",
          "name": "operator",
          "type": "address"
        },
        {
          "indexed": false,
          "internalType": "bool",
          "name": "approved",
          "type": "bool"
        }
      ],
      "name": "ApprovalForAll",
      "type": "event"
    },
    {
      "anonymous": false,
      "inputs": [
        {
          "indexed": true,
          "internalType": "address",
          "name": "from",
          "type": "address"
        },
        {
          "indexed": true,
          "internalType": "address",
          "name": "to",
          "type": "address"
        },
        {
          "indexed": true,
          "internalType": "uint256",
          "name": "tokenId",
          "type": "uint256"
        }
      ],
      "name": "Transfer",
      "type": "event"
    },
    {
      "inputs": [
        {
          "internalType": "address",
          "name": "to",
          "type": "address"
        },
        {
          "internalType": "uint256",
          "name": "tokenId",
          "type": "uint256"
        }
      ],
      "name": "_safeMint",
      "outputs": [],
      "stateMutability": "nonpayable",
      "type": "function"
    },
    {
      "inputs": [
        {
          "internalType": "address",
          "name": "to",
          "type": "address"
        },
        {
          "internalType": "uint256",
          "name": "tokenId",
          "type": "uint256"
        }
      ],
      "name": "approve",
      "outputs": [],
      "stateMutability": "nonpayable",
      "type": "function"
    },
    {
      "inputs": [
        {
          "internalType": "address",
          "name": "owner",
          "type": "address"
        }
      ],
      "name": "balanceOf",
      "outputs": [
        {
          "internalType": "uint256",
          "name": "",
          "type": "uint256"
        }
      ],
      "stateMutability": "view",
      "type": "function"
    },
    {
      "inputs": [
        {
          "internalType": "uint256",
          "name": "tokenId",
          "type": "uint256"
        }
      ],
      "name": "getApproved",
      "outputs": [
        {
          "internalType": "address",
          "name": "",
          "type": "address"
        }
      ],
      "stateMutability": "view",
      "type": "function"
    },
    {
      "inputs": [
        {
          "internalType": "address",
          "name": "owner",
          "type": "address"
        },
        {
          "internalType": "address",
          "name": "operator",
          "type": "address"
        }
      ],
      "name": "isApprovedForAll",
      "outputs": [
        {
          "internalType": "bool",
          "name": "",
          "type": "bool"
        }
      ],
      "stateMutability": "view",
      "type": "function"
    },
    {
      "inputs": [],
      "name": "name",
      "outputs": [
        {
          "internalType": "string",
          "name": "",
          "type": "string"
        }
      ],
      "stateMutability": "view",
      "type": "function"
    },
    {
      "inputs": [
        {
          "internalType": "uint256",
          "name": "tokenId",
          "type": "uint256"
        }
      ],
      "name": "ownerOf",
      "outputs": [
        {
          "internalType": "address",
          "name": "",
          "type": "address"
        }
      ],
      "stateMutability": "view",
      "type": "function"
    },
    {
      "inputs": [
        {
          "internalType": "address",
          "name": "from",
          "type": "address"
        },
        {
          "internalType": "address",
          "name": "to",
          "type": "address"
        },
        {
          "internalType": "uint256",
          "name": "tokenId",
          "type": "uint256"
        }
      ],
      "name": "safeTransferFrom",
      "outputs": [],
      "stateMutability": "nonpayable",
      "type": "function"
    },
    {
      "inputs": [
        {
          "internalType": "address",
          "name": "from",
          "type": "address"
        },
        {
          "internalType": "address",
          "name": "to",
          "type": "address"
        },
        {
          "internalType": "uint256",
          "name": "tokenId",
          "type": "uint256"
        },
        {
          "internalType": "bytes",
          "name": "_data",
          "type": "bytes"
        }
      ],
      "name": "safeTransferFrom",
      "outputs": [],
      "stateMutability": "nonpayable",
      "type": "function"
    },
    {
      "inputs": [
        {
          "internalType": "address",
          "name": "operator",
          "type": "address"
        },
        {
          "internalType": "bool",
          "name": "approved",
          "type": "bool"
        }
      ],
      "name": "setApprovalForAll",
      "outputs": [],
      "stateMutability": "nonpayable",
      "type": "function"
    },
    {
      "inputs": [
        {
          "internalType": "bytes4",
          "name": "interfaceId",
          "type": "bytes4"
        }
      ],
      "name": "supportsInterface",
      "outputs": [
        {
          "internalType": "bool",
          "name": "",
          "type": "bool"
        }
      ],
      "stateMutability": "view",
      "type": "function"
    },
    {
      "inputs": [],
      "name": "symbol",
      "outputs": [
        {
          "internalType": "string",
          "name": "",
          "type": "string"
        }
      ],
      "stateMutability": "view",
      "type": "function"
    },
    {
      "inputs": [
        {
          "internalType": "uint256",
          "name": "tokenId",
          "type": "uint256"
        }
      ],
      "name": "tokenURI",
      "outputs": [
        {
          "internalType": "string",
          "name": "",
          "type": "string"
        }
      ],
      "stateMutability": "view",
      "type": "function"
    },
    {
      "inputs": [
        {
          "internalType": "address",
          "name": "from",
          "type": "address"
        },
        {
          "internalType": "address",
          "name": "to",
          "type": "address"
        },
        {
          "internalType": "uint256",
          "name": "tokenId",
          "type": "uint256"
        }
      ],
      "name": "transferFrom",
      "outputs": [],
      "stateMutability": "nonpayable",
      "type": "function"
    }
  ],
  "bytecode": "0x60806040523480156200001157600080fd5b5060405162002a8138038062002a81833981810160405281019062000037919062000193565b81600090805190602001906200004f92919062000071565b5080600190805190602001906200006892919062000071565b50505062000376565b8280546200007f906200029b565b90600052602060002090601f016020900481019282620000a35760008555620000ef565b82601f10620000be57805160ff1916838001178555620000ef565b82800160010185558215620000ef579182015b82811115620000ee578251825591602001919060010190620000d1565b5b509050620000fe919062000102565b5090565b5b808211156200011d57600081600090555060010162000103565b5090565b60006200013862000132846200022f565b62000206565b9050828152602081018484840111156200015157600080fd5b6200015e84828562000265565b509392505050565b600082601f8301126200017857600080fd5b81516200018a84826020860162000121565b91505092915050565b60008060408385031215620001a757600080fd5b600083015167ffffffffffffffff811115620001c257600080fd5b620001d08582860162000166565b925050602083015167ffffffffffffffff811115620001ee57600080fd5b620001fc8582860162000166565b9150509250929050565b60006200021262000225565b9050620002208282620002d1565b919050565b6000604051905090565b600067ffffffffffffffff8211156200024d576200024c62000336565b5b620002588262000365565b9050602081019050919050565b60005b838110156200028557808201518184015260208101905062000268565b8381111562000295576000848401525b50505050565b60006002820490506001821680620002b457607f821691505b60208210811415620002cb57620002ca62000307565b5b50919050565b620002dc8262000365565b810181811067ffffffffffffffff82111715620002fe57620002fd62000336565b5b80604052505050565b7f4e487b7100000000000000000000000000000000000000000000000000000000600052602260045260246000fd5b7f4e487b7100000000000000000000000000000000000000000000000000000000600052604160045260246000fd5b6000601f19601f8301169050919050565b6126fb80620003866000396000f3fe608060405234801561001057600080fd5b50600436106100ea5760003560e01c806370a082311161008c578063b3e1c71811610066578063b3e1c7181461025b578063b88d4fde14610277578063c87b56dd14610293578063e985e9c5146102c3576100ea565b806370a08231146101f157806395d89b4114610221578063a22cb4651461023f576100ea565b8063095ea7b3116100c8578063095ea7b31461016d57806323b872dd1461018957806342842e0e146101a55780636352211e146101c1576100ea565b806301ffc9a7146100ef57806306fdde031461011f578063081812fc1461013d575b600080fd5b610109600480360381019061010491906118fd565b6102f3565b6040516101169190611cbd565b60405180910390f35b6101276103d5565b6040516101349190611cd8565b60405180910390f35b6101576004803603810190610152919061194f565b610467565b6040516101649190611c56565b60405180910390f35b610187600480360381019061018291906118c1565b6104ec565b005b6101a3600480360381019061019e91906117bb565b610604565b005b6101bf60048036038101906101ba91906117bb565b610664565b005b6101db60048036038101906101d6919061194f565b610684565b6040516101e89190611c56565b60405180910390f35b61020b60048036038101906102069190611756565b610736565b6040516102189190611eba565b60405180910390f35b6102296107ee565b6040516102369190611cd8565b60405180910390f35b61025960048036038101906102549190611885565b610880565b005b610275600480360381019061027091906118c1565b610a01565b005b610291600480360381019061028c919061180a565b610a1f565b005b6102ad60048036038101906102a8919061194f565b610a81565b6040516102ba9190611cd8565b60405180910390f35b6102dd60048036038101906102d8919061177f565b610b28565b6040516102ea9190611cbd565b60405180910390f35b60007f80ac58cd000000000000000000000000000000000000000000000000000000007bffffffffffffffffffffffffffffffffffffffffffffffffffffffff1916827bffffffffffffffffffffffffffffffffffffffffffffffffffffffff191614806103be57507f5b5e139f000000000000000000000000000000000000000000000000000000007bffffffffffffffffffffffffffffffffffffffffffffffffffffffff1916827bffffffffffffffffffffffffffffffffffffffffffffffffffffffff1916145b806103ce57506103cd82610bbc565b5b9050919050565b6060600080546103e4906120df565b80601f0160208091040260200160405190810160405280929190818152602001828054610410906120df565b801561045d5780601f106104325761010080835404028352916020019161045d565b820191906000526020600020905b81548152906001019060200180831161044057829003601f168201915b5050505050905090565b600061047282610c26565b6104b1576040517f08c379a00000000000000000000000000000000000000000000000000000000081526004016104a890611e1a565b60405180910390fd5b6005600083815260200190815260200160002060009054906101000a900473ffffffffffffffffffffffffffffffffffffffff169050919050565b60006104f782610684565b90508073ffffffffffffffffffffffffffffffffffffffff168373ffffffffffffffffffffffffffffffffffffffff161415610568576040517f08c379a000000000000000000000000000000000000000000000000000000000815260040161055f90611e7a565b60405180910390fd5b8073ffffffffffffffffffffffffffffffffffffffff16610587610c92565b73ffffffffffffffffffffffffffffffffffffffff1614806105b657506105b5816105b0610c92565b610b28565b5b6105f5576040517f08c379a00000000000000000000000000000000000000000000000000000000081526004016105ec90611d9a565b60405180910390fd5b6105ff8383610c9a565b505050565b61061561060f610c92565b82610d53565b610654576040517f08c379a000000000000000000000000000000000000000000000000000000000815260040161064b90611e9a565b60405180910390fd5b61065f838383610e31565b505050565b61067f83838360405180602001604052806000815250610a1f565b505050565b6000806002600084815260200190815260200160002060009054906101000a900473ffffffffffffffffffffffffffffffffffffffff169050600073ffffffffffffffffffffffffffffffffffffffff168173ffffffffffffffffffffffffffffffffffffffff16141561072d576040517f08c379a000000000000000000000000000000000000000000000000000000000815260040161072490611dda565b60405180910390fd5b80915050919050565b60008073ffffffffffffffffffffffffffffffffffffffff168273ffffffffffffffffffffffffffffffffffffffff1614156107a7576040517f08c379a000000000000000000000000000000000000000000000000000000000815260040161079e90611dba565b60405180910390fd5b600460008373ffffffffffffffffffffffffffffffffffffffff1673ffffffffffffffffffffffffffffffffffffffff168152602001908152602001600020549050919050565b6060600180546107fd906120df565b80601f0160208091040260200160405190810160405280929190818152602001828054610829906120df565b80156108765780601f1061084b57610100808354040283529160200191610876565b820191906000526020600020905b81548152906001019060200180831161085957829003601f168201915b5050505050905090565b610888610c92565b73ffffffffffffffffffffffffffffffffffffffff168273ffffffffffffffffffffffffffffffffffffffff1614156108f6576040517f08c379a00000000000000000000000000000000000000000000000000000000081526004016108ed90611d5a565b60405180910390fd5b8060066000610903610c92565b73ffffffffffffffffffffffffffffffffffffffff1673ffffffffffffffffffffffffffffffffffffffff16815260200190815260200160002060008473ffffffffffffffffffffffffffffffffffffffff1673ffffffffffffffffffffffffffffffffffffffff16815260200190815260200160002060006101000a81548160ff0219169083151502179055508173ffffffffffffffffffffffffffffffffffffffff166109b0610c92565b73ffffffffffffffffffffffffffffffffffffffff167f17307eab39ab6107e8899845ad3d59bd9653f200f220920489ca2b5937696c31836040516109f59190611cbd565b60405180910390a35050565b610a1b82826040518060200160405280600081525061108d565b5050565b610a30610a2a610c92565b83610d53565b610a6f576040517f08c379a0000000000000000000000000000000000000000000000000000000008152600401610a6690611e9a565b60405180910390fd5b610a7b848484846110e8565b50505050565b6060610a8c82610c26565b610acb576040517f08c379a0000000000000000000000000000000000000000000000000000000008152600401610ac290611e5a565b60405180910390fd5b6000610ad5611144565b90506000815111610af55760405180602001604052806000815250610b20565b80610aff8461115b565b604051602001610b10929190611c32565b6040516020818303038152906040525b915050919050565b6000600660008473ffffffffffffffffffffffffffffffffffffffff1673ffffffffffffffffffffffffffffffffffffffff16815260200190815260200160002060008373ffffffffffffffffffffffffffffffffffffffff1673ffffffffffffffffffffffffffffffffffffffff16815260200190815260200160002060009054906101000a900460ff16905092915050565b60007f01ffc9a7000000000000000000000000000000000000000000000000000000007bffffffffffffffffffffffffffffffffffffffffffffffffffffffff1916827bffffffffffffffffffffffffffffffffffffffffffffffffffffffff1916149050919050565b60008073ffffffffffffffffffffffffffffffffffffffff166002600084815260200190815260200160002060009054906101000a900473ffffffffffffffffffffffffffffffffffffffff1673ffffffffffffffffffffffffffffffffffffffff1614159050919050565b600033905090565b816005600083815260200190815260200160002060006101000a81548173ffffffffffffffffffffffffffffffffffffffff021916908373ffffffffffffffffffffffffffffffffffffffff160217905550808273ffffffffffffffffffffffffffffffffffffffff16610d0d83610684565b73ffffffffffffffffffffffffffffffffffffffff167f8c5be1e5ebec7d5bd14f71427d1e84f3dd0314c0f7b2291e5b200ac8c7c3b92560405160405180910390a45050565b6000610d5e82610c26565b610d9d576040517f08c379a0000000000000000000000000000000000000000000000000000000008152600401610d9490611d7a565b60405180910390fd5b6000610da883610684565b90508073ffffffffffffffffffffffffffffffffffffffff168473ffffffffffffffffffffffffffffffffffffffff161480610e1757508373ffffffffffffffffffffffffffffffffffffffff16610dff84610467565b73ffffffffffffffffffffffffffffffffffffffff16145b80610e285750610e278185610b28565b5b91505092915050565b8273ffffffffffffffffffffffffffffffffffffffff16610e5182610684565b73ffffffffffffffffffffffffffffffffffffffff1614610ea7576040517f08c379a0000000000000000000000000000000000000000000000000000000008152600401610e9e90611e3a565b60405180910390fd5b600073ffffffffffffffffffffffffffffffffffffffff168273ffffffffffffffffffffffffffffffffffffffff161415610f17576040517f08c379a0000000000000000000000000000000000000000000000000000000008152600401610f0e90611d3a565b60405180910390fd5b610f22838383611308565b610f2d600082610c9a565b6001600460008573ffffffffffffffffffffffffffffffffffffffff1673ffffffffffffffffffffffffffffffffffffffff1681526020019081526020016000206000828254610f7d9190611ff5565b925050819055506001600460008473ffffffffffffffffffffffffffffffffffffffff1673ffffffffffffffffffffffffffffffffffffffff1681526020019081526020016000206000828254610fd49190611f6e565b92505081905550816002600083815260200190815260200160002060006101000a81548173ffffffffffffffffffffffffffffffffffffffff021916908373ffffffffffffffffffffffffffffffffffffffff160217905550808273ffffffffffffffffffffffffffffffffffffffff168473ffffffffffffffffffffffffffffffffffffffff167fddf252ad1be2c89b69c2b068fc378daa952ba7f163c4a11628f55a4df523b3ef60405160405180910390a4505050565b611097838361130d565b6110a460008484846114db565b6110e3576040517f08c379a00000000000000000000000000000000000000000000000000000000081526004016110da90611cfa565b60405180910390fd5b505050565b6110f3848484610e31565b6110ff848484846114db565b61113e576040517f08c379a000000000000000000000000000000000000000000000000000000000815260040161113590611cfa565b60405180910390fd5b50505050565b606060405180602001604052806000815250905090565b606060008214156111a3576040518060400160405280600181526020017f30000000000000000000000000000000000000000000000000000000000000008152509050611303565b600082905060005b600082146111d55780806111be90612142565b915050600a826111ce9190611fc4565b91506111ab565b60008167ffffffffffffffff811115611217577f4e487b7100000000000000000000000000000000000000000000000000000000600052604160045260246000fd5b6040519080825280601f01601f1916602001820160405280156112495781602001600182028036833780820191505090505b5090505b600085146112fc576001826112629190611ff5565b9150600a85611271919061218b565b603061127d9190611f6e565b60f81b8183815181106112b9577f4e487b7100000000000000000000000000000000000000000000000000000000600052603260045260246000fd5b60200101907effffffffffffffffffffffffffffffffffffffffffffffffffffffffffffff1916908160001a905350600a856112f59190611fc4565b945061124d565b8093505050505b919050565b505050565b600073ffffffffffffffffffffffffffffffffffffffff168273ffffffffffffffffffffffffffffffffffffffff16141561137d576040517f08c379a000000000000000000000000000000000000000000000000000000000815260040161137490611dfa565b60405180910390fd5b61138681610c26565b156113c6576040517f08c379a00000000000000000000000000000000000000000000000000000000081526004016113bd90611d1a565b60405180910390fd5b6113d260008383611308565b6001600460008473ffffffffffffffffffffffffffffffffffffffff1673ffffffffffffffffffffffffffffffffffffffff16815260200190815260200160002060008282546114229190611f6e565b92505081905550816002600083815260200190815260200160002060006101000a81548173ffffffffffffffffffffffffffffffffffffffff021916908373ffffffffffffffffffffffffffffffffffffffff160217905550808273ffffffffffffffffffffffffffffffffffffffff16600073ffffffffffffffffffffffffffffffffffffffff167fddf252ad1be2c89b69c2b068fc378daa952ba7f163c4a11628f55a4df523b3ef60405160405180910390a45050565b60006114fc8473ffffffffffffffffffffffffffffffffffffffff16611672565b15611665578373ffffffffffffffffffffffffffffffffffffffff1663150b7a02611525610c92565b8786866040518563ffffffff1660e01b81526004016115479493929190611c71565b602060405180830381600087803b15801561156157600080fd5b505af192505050801561159257506040513d601f19601f8201168201806040525081019061158f9190611926565b60015b611615573d80600081146115c2576040519150601f19603f3d011682016040523d82523d6000602084013e6115c7565b606091505b5060008151141561160d576040517f08c379a000000000000000000000000000000000000000000000000000000000815260040161160490611cfa565b60405180910390fd5b805181602001fd5b63150b7a0260e01b7bffffffffffffffffffffffffffffffffffffffffffffffffffffffff1916817bffffffffffffffffffffffffffffffffffffffffffffffffffffffff19161491505061166a565b600190505b949350505050565b600080823b905060008111915050919050565b600061169861169384611efa565b611ed5565b9050828152602081018484840111156116b057600080fd5b6116bb84828561209d565b509392505050565b6000813590506116d281612669565b92915050565b6000813590506116e781612680565b92915050565b6000813590506116fc81612697565b92915050565b60008151905061171181612697565b92915050565b600082601f83011261172857600080fd5b8135611738848260208601611685565b91505092915050565b600081359050611750816126ae565b92915050565b60006020828403121561176857600080fd5b6000611776848285016116c3565b91505092915050565b6000806040838503121561179257600080fd5b60006117a0858286016116c3565b92505060206117b1858286016116c3565b9150509250929050565b6000806000606084860312156117d057600080fd5b60006117de868287016116c3565b93505060206117ef868287016116c3565b925050604061180086828701611741565b9150509250925092565b6000806000806080858703121561182057600080fd5b600061182e878288016116c3565b945050602061183f878288016116c3565b935050604061185087828801611741565b925050606085013567ffffffffffffffff81111561186d57600080fd5b61187987828801611717565b91505092959194509250565b6000806040838503121561189857600080fd5b60006118a6858286016116c3565b92505060206118b7858286016116d8565b9150509250929050565b600080604083850312156118d457600080fd5b60006118e2858286016116c3565b92505060206118f385828601611741565b9150509250929050565b60006020828403121561190f57600080fd5b600061191d848285016116ed565b91505092915050565b60006020828403121561193857600080fd5b600061194684828501611702565b91505092915050565b60006020828403121561196157600080fd5b600061196f84828501611741565b91505092915050565b61198181612029565b82525050565b6119908161203b565b82525050565b60006119a182611f2b565b6119ab8185611f41565b93506119bb8185602086016120ac565b6119c481612278565b840191505092915050565b60006119da82611f36565b6119e48185611f52565b93506119f48185602086016120ac565b6119fd81612278565b840191505092915050565b6000611a1382611f36565b611a1d8185611f63565b9350611a2d8185602086016120ac565b80840191505092915050565b6000611a46603283611f52565b9150611a5182612289565b604082019050919050565b6000611a69601c83611f52565b9150611a74826122d8565b602082019050919050565b6000611a8c602483611f52565b9150611a9782612301565b604082019050919050565b6000611aaf601983611f52565b9150611aba82612350565b602082019050919050565b6000611ad2602c83611f52565b9150611add82612379565b604082019050919050565b6000611af5603883611f52565b9150611b00826123c8565b604082019050919050565b6000611b18602a83611f52565b9150611b2382612417565b604082019050919050565b6000611b3b602983611f52565b9150611b4682612466565b604082019050919050565b6000611b5e602083611f52565b9150611b69826124b5565b602082019050919050565b6000611b81602c83611f52565b9150611b8c826124de565b604082019050919050565b6000611ba4602983611f52565b9150611baf8261252d565b604082019050919050565b6000611bc7602f83611f52565b9150611bd28261257c565b604082019050919050565b6000611bea602183611f52565b9150611bf5826125cb565b604082019050919050565b6000611c0d603183611f52565b9150611c188261261a565b604082019050919050565b611c2c81612093565b82525050565b6000611c3e8285611a08565b9150611c4a8284611a08565b91508190509392505050565b6000602082019050611c6b6000830184611978565b92915050565b6000608082019050611c866000830187611978565b611c936020830186611978565b611ca06040830185611c23565b8181036060830152611cb28184611996565b905095945050505050565b6000602082019050611cd26000830184611987565b92915050565b60006020820190508181036000830152611cf281846119cf565b905092915050565b60006020820190508181036000830152611d1381611a39565b9050919050565b60006020820190508181036000830152611d3381611a5c565b9050919050565b60006020820190508181036000830152611d5381611a7f565b9050919050565b60006020820190508181036000830152611d7381611aa2565b9050919050565b60006020820190508181036000830152611d9381611ac5565b9050919050565b60006020820190508181036000830152611db381611ae8565b9050919050565b60006020820190508181036000830152611dd381611b0b565b9050919050565b60006020820190508181036000830152611df381611b2e565b9050919050565b60006020820190508181036000830152611e1381611b51565b9050919050565b60006020820190508181036000830152611e3381611b74565b9050919050565b60006020820190508181036000830152611e5381611b97565b9050919050565b60006020820190508181036000830152611e7381611bba565b9050919050565b60006020820190508181036000830152611e9381611bdd565b9050919050565b60006020820190508181036000830152611eb381611c00565b9050919050565b6000602082019050611ecf6000830184611c23565b92915050565b6000611edf611ef0565b9050611eeb8282612111565b919050565b6000604051905090565b600067ffffffffffffffff821115611f1557611f14612249565b5b611f1e82612278565b9050602081019050919050565b600081519050919050565b600081519050919050565b600082825260208201905092915050565b600082825260208201905092915050565b600081905092915050565b6000611f7982612093565b9150611f8483612093565b9250827fffffffffffffffffffffffffffffffffffffffffffffffffffffffffffffffff03821115611fb957611fb86121bc565b5b828201905092915050565b6000611fcf82612093565b9150611fda83612093565b925082611fea57611fe96121eb565b5b828204905092915050565b600061200082612093565b915061200b83612093565b92508282101561201e5761201d6121bc565b5b828203905092915050565b600061203482612073565b9050919050565b60008115159050919050565b60007fffffffff0000000000000000000000000000000000000000000000000000000082169050919050565b600073ffffffffffffffffffffffffffffffffffffffff82169050919050565b6000819050919050565b82818337600083830152505050565b60005b838110156120ca5780820151818401526020810190506120af565b838111156120d9576000848401525b50505050565b600060028204905060018216806120f757607f821691505b6020821081141561210b5761210a61221a565b5b50919050565b61211a82612278565b810181811067ffffffffffffffff8211171561213957612138612249565b5b80604052505050565b600061214d82612093565b91507fffffffffffffffffffffffffffffffffffffffffffffffffffffffffffffffff8214156121805761217f6121bc565b5b600182019050919050565b600061219682612093565b91506121a183612093565b9250826121b1576121b06121eb565b5b828206905092915050565b7f4e487b7100000000000000000000000000000000000000000000000000000000600052601160045260246000fd5b7f4e487b7100000000000000000000000000000000000000000000000000000000600052601260045260246000fd5b7f4e487b7100000000000000000000000000000000000000000000000000000000600052602260045260246000fd5b7f4e487b7100000000000000000000000000000000000000000000000000000000600052604160045260246000fd5b6000601f19601f8301169050919050565b7f4552433732313a207472616e7366657220746f206e6f6e20455243373231526560008201527f63656976657220696d706c656d656e7465720000000000000000000000000000602082015250565b7f4552433732313a20746f6b656e20616c7265616479206d696e74656400000000600082015250565b7f4552433732313a207472616e7366657220746f20746865207a65726f2061646460008201527f7265737300000000000000000000000000000000000000000000000000000000602082015250565b7f4552433732313a20617070726f766520746f2063616c6c657200000000000000600082015250565b7f4552433732313a206f70657261746f7220717565727920666f72206e6f6e657860008201527f697374656e7420746f6b656e0000000000000000000000000000000000000000602082015250565b7f4552433732313a20617070726f76652063616c6c6572206973206e6f74206f7760008201527f6e6572206e6f7220617070726f76656420666f7220616c6c0000000000000000602082015250565b7f4552433732313a2062616c616e636520717565727920666f7220746865207a6560008201527f726f206164647265737300000000000000000000000000000000000000000000602082015250565b7f4552433732313a206f776e657220717565727920666f72206e6f6e657869737460008201527f656e7420746f6b656e0000000000000000000000000000000000000000000000602082015250565b7f4552433732313a206d696e7420746f20746865207a65726f2061646472657373600082015250565b7f4552433732313a20617070726f76656420717565727920666f72206e6f6e657860008201527f697374656e7420746f6b656e0000000000000000000000000000000000000000602082015250565b7f4552433732313a207472616e73666572206f6620746f6b656e2074686174206960008201527f73206e6f74206f776e0000000000000000000000000000000000000000000000602082015250565b7f4552433732314d657461646174613a2055524920717565727920666f72206e6f60008201527f6e6578697374656e7420746f6b656e0000000000000000000000000000000000602082015250565b7f4552433732313a20617070726f76616c20746f2063757272656e74206f776e6560008201527f7200000000000000000000000000000000000000000000000000000000000000602082015250565b7f4552433732313a207472616e736665722063616c6c6572206973206e6f74206f60008201527f776e6572206e6f7220617070726f766564000000000000000000000000000000602082015250565b61267281612029565b811461267d57600080fd5b50565b6126898161203b565b811461269457600080fd5b50565b6126a081612047565b81146126ab57600080fd5b50565b6126b781612093565b81146126c257600080fd5b5056fea264697066735822122033929fd02ce07c1e9bd0e9c0876ee780ba6db2b334ccc8cad167d7279c841f3664736f6c63430008030033",
  "linkReferences": {},
  "deployedLinkReferences": {}
}